:020000022000DC
:1060000000000120BD620200E5620200E7620200BA
:10601000E9620200EB620200ED6202000000000093
:10602000000000000000000000000000EF6202001D
:10603000F162020000000000F3620200F56202005B
:106040000D8E0200F7620200BD920200E1E4020040
:1060500049DF0200F7620200798E020029A00200E7
:10606000F7620200F7620200F7620200F7620200C4
:10607000F7620200F7620200F7620200F7620200B4
:10608000F7620200ED790200F7620200F762020097
:10609000F7620200F7620200A1FD0200F76202004F
:1060A000F7620200F7620200F7620200F762020084
:1060B000F7620200F762020000000000000000002A
:1060C000F7620200F7620200F7620200F762020064
:1060D000F7620200F7620200F762020000000000AF
:1060E00000000000000000000000000000000000B0
:1060F00000000000000000000000000000000000A0
:10610000000000000000000000000000000000008F
:10611000000000000000000000000000000000007F
:10612000000000000000000000000000000000006F
:10613000000000000000000000000000000000005F
:10614000000000000000000000000000000000004F
:10615000000000000000000000000000000000003F
:10616000000000000000000000000000000000002F
:10617000000000000000000000000000000000001F
:10618000000000000000000000000000000000000F
:1061900000000000000000000000000000000000FF
:1061A00000000000000000000000000000000000EF
:1061B00000000000000000000000000000000000DF
:1061C00000000000000000000000000000000000CF
:1061D00000000000000000000000000000000000BF
:1061E00000000000000000000000000000000000AF
:1061F000000000000000000000000000000000009F
:1062000010B5054C237833B9044B13B10448AFF3F0
:1062100000800123237010BD202D0020000000000D
:106220003458030008B5034B1BB103490348AFF3CF
:10623000008008BD00000000242D00203458030019
:10624000A3F5803A704700BF174B002B08BF134BD4
:106250009D46FFF7F5FF00218B460F461348144A71
:10626000121A09F091FF0E4B002B00D098470D4BEE
:10627000002B00D098470020002104000D000D489D
:10628000002802D00C48AFF3008009F04BFF20003B
:10629000290004F0EFFD09F031FF00BF0000080005
:1062A000000000000000000000000120202D002060
:1062B0008446002000000000000000000649074A54
:1062C000074B9B1A03DD043BC858D050FBDC02F09F
:1062D00069FAFFF7B9FF000054590300D82A0020DB
:1062E000202D0020FEE7FEE7FEE7FEE7FEE7FEE7E3
:1062F000FEE7FEE7FEE7FEE7704700BF00B583B0AC
:10630000044B0093044A402300F036F803B05DF8D4
:1063100004FB00BF1D630200402D002002B32DE9E5
:10632000F843114B114E8846144643F001090327E8
:106330000025224608EB0501002008F0C9FB0346B2
:106340001D444FF47A40E41A23B9337833B1C84777
:10635000013F06D001233370002CEAD1BDE8F88359
:1063600070473770BDE8F883F03E03003C2D0020F5
:10637000704700BF08F08ABCF0B595B000241D46F8
:106380000E460846174602F0A9F830462346082272
:10639000099505A91A9D08970D950A948DF82C402A
:1063A0000C9402F0FFF89DF814308DF81140DDE9EF
:1063B000061003F00302012ACDE9020128D0022AC7
:1063C00004D0304602F08EF815B0F0BDBDF816507E
:1063D000C3F3C2038DF81030C5F389150827082DC3
:1063E0002C4628BF08243B4622460EA9304602F020
:1063F000D9F82D1B214608AB02AA0EA8274400F0AD
:10640000F9FD002DEBD1304602F06CF815B0F0BD6F
:10641000BDF81470059DC7F38312C3F3C2040EA91F
:106420003046920008238DF81040C7F3831702F01E
:10643000B9F8C5F3952508AB3A4628460EA900934E
:1064400002AB00F05FFD304602F04CF815B0F0BD35
:1064500008B5FFF78FFF0448042100F0D1FC034B7F
:1064600001225A7108BD00BF3C590300D82A002000
:10647000064B074810B500221A7001F0E3FF0446EE
:1064800010B9044802F004F9204610BD502E002037
:10649000885803002C3F030099B10E4B0E495B1A3C
:1064A000DB0815D030B400220C4D02E001329342DB
:1064B0000BD035F822408442F8D151F8320030BC7C
:1064C0007047054951F830007047002030BC7047D4
:1064D000184670473C5903009C5803001C2D0020AF
:1064E000094B013903EBC00003290BD8DFE801F0A9
:1064F0000402080604207047022070474079704764
:1065000000797047002070479C580300704700BF17
:106510002DE9F0438C4CD4E901239A4285B060D038
:106520000023C4F81834BFF34F8FA568EAB2D31C18
:1065300004EB830114F82330580718D566680B78EC
:1065400003F00303012B42D0022B03D14B88023509
:1065500005EB9315EAB2D4F81804D31C04EB8301BD
:1065600028B9AE4239D914F823305B07E7D404EBDD
:1065700082026B1CD2680192DBB204EB830302F04F
:106580000302DB680293022A05F102062DD0012ADC
:1065900000F08D80D4F810543DB12B6828469B68DC
:1065A0009847EB681D68002DF7D16848684B69492A
:1065B000C01AC008000440F0020000F0D1F8D4E98D
:1065C0000130C01A18BF012005B0BDE8F0830B8868
:1065D0000235C3F383131D44BCE7A66005B0BDE8D4
:1065E000F083002005B0BDE8F083BDF806305A48BE
:1065F000C3F389184546502D28BF502565F38F13E6
:1066000005F10801ADF8063001F01EFF074600282D
:10661000C0D001F063FF002301A90822384601F031
:106620008DFFF343DBB20133B5EB830F4FEA8309F0
:10663000F1B277D9A5EB0905033104EB81010823F9
:106640004A463846EDB201F079FF44492A4609F13D
:106650000803384601F072FF08F1030806EB9806BC
:10666000D4F81834002B6AD1D4F8105465B1EB6813
:106670005A7928463946002A5DD02B681B6898470E
:10668000EB681D68002DF2D1384601F02BFF002386
:106690000DF103008DF8033001F014F8D4F818342C
:1066A00003B9A6609DF8030001F032F887E7BDF852
:1066B00004302948C3F38312062A28BF0622911CFE
:1066C00062F389138900ADF8043001F0BDFE07467E
:1066D00000283FF45FAF01F001FF0023082201A969
:1066E000384601F02BFFBDF8043013F4707FB7D0AB
:1066F0006FF00108A8EB05080825F1B203312B461D
:10670000042204EB8101384601F018FFBDF8042093
:10671000013608EB0603C2F383129A4205F1040521
:10672000EBD89DE703312A4604EB81010823384664
:1067300001F004FF90E71D68002D98D1A4E73846CA
:1067400001F0D0FE3BE700BF502E0020E4580300CC
:106750009C580300143F0300885803005C2E00205F
:106760002DE9F04F5F4C87B0002306460DF10B007A
:106770008DF80B300F4600F0A5FFD4E9015303F567
:1067800080735B1B012B7DD804F21C4804F5836ADF
:1067900004F214491AE0BDF80E30C3F38913033331
:1067A000090C0BEB930B4846019101F033FA019968
:1067B000002839D04046C4F808B001F0FFF9D4E908
:1067C000013202F58072D21A012A5CD801214046BA
:1067D00001F0F4F9504601F00DFA484601F00AFACA
:1067E000A368DAB2D11C04EB810014F8211001F087
:1067F000040C490728D404EB8202591CD268039286
:10680000C9B204EB810102F00302012AC96803F155
:10681000020B30D0022ABED000214846019101F07F
:10682000F9F901990028C5D14046C6E743880EEB27
:106830009313DAB2D11C04EB810014F8211001F09B
:10684000040CBCF1000FD6D0017801F0030101293E
:106850000BD0022903F1020E02F10301E6D004EB92
:106860008100BCF1000FEFD1C5E702880233C2F30B
:1068700083121344DDE7BDF80C30C3F38313090C16
:106880009B4490E72B46DAB20332023305219DF890
:106890000B0044F82210636000F03AFF0021124818
:1068A00001F062F980F31000F1006B1C01F0380177
:1068B000DBB2EDB204EB830341F0010100040335C8
:1068C00040EA164641EA8727DE6044F825702378BF
:1068D0001BB1FFF71DFE0028FBD1FFF717FE07B025
:1068E000BDE8F08F502E00206C3200202DE9F04FD3
:1068F000644C87B0002306460DF10B008DF80B3079
:106900000F46904600F0DEFED4E9015303F5807394
:106910005B1B022B7FD804F21C4904F5836B04F245
:10692000144A1BE0BDF80E20C2F389120332090C91
:1069300003EB92035046CDE9003101F06BF9019968
:1069400000283AD0009BA360484601F037F9D4E90B
:10695000013202F58072D21A022A5DD8012148461E
:1069600001F02CF9584601F045F9504601F042F982
:10697000A368DAB2D11C04EB810014F8211001F0F5
:10698000040C490729D404EB8202591CD2680392F3
:10699000C9B204EB810102F00302012AC96803F1C4
:1069A000020331D0022ABDD000215046CDE900318A
:1069B00001F030F901990028C4D14846C5E7438861
:1069C0000EEB9313DAB2D11C04EB810014F8211002
:1069D00001F0040CBCF1000FD5D0017801F00301E7
:1069E00001290BD0022903F1020E02F10301E6D0C6
:1069F00004EB8100BCF1000FEFD1C4E70288023341
:106A0000C2F383121344DDE7BDF80C20C2F38312F6
:106A1000090C13448EE72B46DAB2033203334521C7
:106A20009DF80B0044F82210636000F071FEAB1C6F
:106A3000DBB204EB830300211348C3F80C8001F0A0
:106A400093F880F31000F1006B1C01F03801DBB209
:106A5000EDB204EB830341F041010004033540EA49
:106A6000164641EA8727DE6044F8257023781BB17B
:106A7000FFF74EFD0028FBD1FFF748FD07B0BDE84A
:106A8000F08F00BF502E00206C3200202DE9F04F17
:106A9000694C89B0002506460DF113001F468DF89C
:106AA00013508846039200F00DFED4E9015303F51C
:106AB00080735B1B032B00F2828004F21C4904F5F7
:106AC000836B04F2144A1BE0BDF81620C2F389124E
:106AD0000332090C03EB92035046CDE9013101F07A
:106AE00099F8029900283BD0019BA360484601F029
:106AF00065F8D4E9013202F58072D21A032A5FD810
:106B00000121484601F05AF8584601F073F8504602
:106B100001F070F8A368DAB2D11C04EB810014F81C
:106B200021C01CF0040F0CF0040128D104EB8202F8
:106B3000591CD2680592C9B204EB810102F003022C
:106B4000012AC96803F1020332D0022ABCD0002115
:106B50005046CDE9013101F05DF802990028C3D11A
:106B60004846C4E743880EEB9313DAB2D11C04EB1A
:106B7000810014F8211001F004010029D6D090F80A
:106B800000C00CF0030CBCF1010F0BD0BCF1020FE4
:106B900003F1020E02F1030CE4D004EB8C00002997
:106BA000EDD1C3E702880233C2F383121344DCE75A
:106BB000BDF81420C2F38312090C13448CE72B4652
:106BC000DAB20332043385219DF8130044F8221011
:106BD000636000F09DFDAA1CEB1CDBB2D2B204EB9B
:106BE000830C04EB8202039B1448D3600021CCF891
:106BF0000C7000F0B9FF80F31000F1006B1C01F085
:106C00003801DBB2EDB204EB830341F081010004F3
:106C1000033540EA164641EA8821DE6044F8251033
:106C200023781BB1FFF774FC0028FBD1FFF76EFC43
:106C300009B0BDE8F08F00BF502E00206C3200205C
:106C40002DE9F04F6C4C89B0002506460DF113007C
:106C50001F468DF813508846039200F033FDD4E9A7
:106C6000015303F580735B1B042B00F2828004F256
:106C70001C4904F5836B04F2144A1BE0BDF816208E
:106C8000C2F389120332090C03EB92035046CDE99B
:106C9000013100F0BFFF029900283BD0019BA360A7
:106CA000484600F08BFFD4E9013202F58072D21A17
:106CB000042A5FD80121484600F080FF584600F0C2
:106CC00099FF504600F096FFA368DAB2D11C04EB9E
:106CD000810014F821C01CF0040F0CF0040128D12D
:106CE00004EB8202591CD2680592C9B204EB8101FF
:106CF00002F00302012AC96803F1020332D0022A1A
:106D0000BCD000215046CDE9013100F083FF02994B
:106D10000028C3D14846C4E743880EEB9313DAB288
:106D2000D11C04EB810014F8211001F004010029AA
:106D3000D6D090F800C00CF0030CBCF1010F0BD0C2
:106D4000BCF1020F03F1020E02F1030CE4D004EBDC
:106D50008C000029EDD1C3E702880233C2F383120D
:106D60001344DCE7BDF81420C2F38312090C13446A
:106D70008CE72B46DAB203320533C5219DF81300A8
:106D800044F82210636000F0C3FCA81CEA1C2B1D11
:106D9000C0B2DBB204EB8000D2B204EB830C04EB94
:106DA0008202039BC3600021129B1448D760CCF879
:106DB0000C3000F0D9FE80F31000F1006B1C01F0E4
:106DC0003801DBB2EDB204EB830341F0C1010004F2
:106DD000033540EA164641EA8821DE6044F8251072
:106DE00023781BB1FFF794FB0028FBD1FFF78EFB44
:106DF00009B0BDE8F08F00BF502E00206C3200209B
:106E000030B4154DD5F810140446002071B10B466E
:106E100001E01B6853B1DB681A798242F9D1013075
:106E20000A28F3D14FF0FF3030BC7047E368187187
:106E3000D5F810344BB1DA68E36812681A60D5F8F7
:106E40001034DB681C6030BC7047C5F81044E26841
:106E5000136030BC704700BF502E002038B5084B7F
:106E6000D3F8104401251D704CB1E3685D712368AF
:106E700020465B689847E3681C68002CF5D138BD54
:106E8000502E002030B5C38885B004460D461BBB8C
:106E9000217A05291ED0627A82B9134AA08852F855
:106EA000212003920021FFF7F7FA039A0F490346C6
:106EB000284605B0BDE8304000F028BFA088FFF7A5
:106EC0000FFB0B4B0B4953F82020284600F01EFF08
:106ED000217AE2E705B030BD074A00920749084A27
:106EE000284600F013FFD3E7F83F0300603F03009C
:106EF000D43F0300A4470300583F0300403F030072
:106F0000383F03002DE9F04385B04FF0000C0C9C96
:106F1000814694F80C8084F80CC00E46174618463B
:106F200021461D46FFF7AEFF062F09D8DFE807F020
:106F3000042E343B444F1F004946204600F0E6FE35
:106F40002B7A052B05D06B7A5BB92749204600F0D8
:106F5000DDFE204600F0CEFE84F80C8005B0BDE8D2
:106F6000F083224A2249204600F0D0FEEDE7D6E920
:106F70000413F2680393B3680291CDE900324946E5
:106F8000D6E90023204600F0C1FED9E73268494621
:106F9000204600F0BBFED3E7D6E900234946204651
:106FA00000F0B4FECCE7B3680093D6E9002349466D
:106FB000204600F0ABFEC3E7D6E90232019200930F
:106FC000D6E900234946204600F0A0FEB8E7D6E9FE
:106FD0000321B3680291CDE900324946D6E9002386
:106FE000204600F093FEABE76C3F0300583F0300E0
:106FF000A4470300082900D970472DE9F04F9B46AC
:1070000083B000241B7B8BF80C400D460646594686
:10701000104690460193DFF8D0902C4FFFF732FFD7
:1070200005E0325D013400F071FE082C09D0A54264
:1070300039465846F5D84946013400F067FE082C19
:10704000F5D12349DFF8A490224C234F584600F095
:107050005DFE4FF0000A0DE0D15D11F0970F08BF03
:107060002E22214658460AF1010A00F04FFEBAF1DD
:10707000080F10D0554505D916F80A207E2AEBD9FD
:107080002E22EEE7494658460AF1010A00F03EFE7C
:10709000BAF1080FEED198F80830052B02D098F815
:1070A000093063B90D49584600F030FE584600F0EB
:1070B00021FE019B8BF80C3003B0BDE8F08F084A2D
:1070C0000849584600F022FEECE700BF703F03007D
:1070D0007C3F0300803F0300015403006C3F03002A
:1070E000583F0300A4470300783F0300284D0300E6
:1070F00000B585B00346002101AA44F20100CDE9A4
:107100000111039300F004F805B05DF804FB00BF23
:1071100010B572B6FFF7A2FEFFF7FAF90028FBD10F
:10712000104B114C1149E41AE408240444F0010006
:10713000FFF716FB0E4B1B68DB0700D500BE0D49A1
:1071400044F00200FFF70CFBBFF34F8F0A490B4BD3
:10715000CA6802F4E0621343CB60BFF34F8F00BFF5
:10716000FDE700BF9C580300E458030018400300EB
:10717000F0ED00E02440030000ED00E00400FA051B
:10718000D0E90223D1E90201994208BF90422CBF05
:1071900001200020704700BF10B5044682B00023D4
:1071A0000DF107008DF8073000F08CFA23692BB938
:1071B0004FF0FF324FF0FF33C4E902239DF8070080
:1071C00000F0A6FAD4E90530984700230DF1070036
:1071D0008DF8073000F076FA2369B3B1D4E90201E3
:1071E0004A1C08BFB0F1FF3F0FD0C01841F10001A9
:1071F000C4E902019DF8070000F08AFA064821461A
:1072000001F06AFA012002B010BD9DF8070000F0FD
:107210007FFA002002B010BD444003002DE9F04F7A
:1072200087B0064600F0A0FB40B1AA4AD2E900317F
:1072300013F1807341F10001C2E9003100213046B1
:1072400000F0AEFBA44C60B3236853B3A34B256896
:107250001B7823B31DB3A24800F0B2FB9D4BA1499C
:10726000D3E90023D1E90089121843F100034B450B
:1072700008BF424503D212F1807243F10003D5E901
:1072800002018B4208BF824280F02081013108BF99
:10729000B0F1FF3F03D09448294601F01DFA0023C6
:1072A00023600121304600F07BFB002840F0F28093
:1072B0008E4805A900F0FAFB78B38C4D4FF0FF38EB
:1072C0004FF0FF390BE0002B00F0958005A9284610
:1072D00000F01CFC05A9284600F0E8FBE8B10378A3
:1072E000012B11D0022BEED17F4F384601F008FA66
:1072F00030B1C0E90289384601F002FA0028F8D11D
:10730000764B01221A70E1E741682368994200F048
:10731000B680754801F0FEF9D8E7DFF8CC81704FF0
:10732000DFF8B091404601F0F1F9002859D0D0E9DA
:107330000223591C08BFB2F1FF3F58D0216891B118
:107340002168D1E902018B4208BF82424CD22368F6
:10735000D3E90223013308BFB2F1FF3F03D0216814
:10736000404601F0B9F9404601F0CAF905463846F1
:10737000AA68EB680392029300F022FBD9E900AB04
:10738000584BD3E900231AEB000A4BF1000B9B4545
:1073900008BF9245DDE9023203D21AF1807A4BF13F
:1073A000000BB2EB0A0163EB0B0301930091DDE9E3
:1073B0000001012871F100032ADBB0F5350F58D226
:1073C0004FF496030021384600F048FA00284AD0CE
:1073D0000D2821D000234046236001F097F90028B2
:1073E000A5D12368002B6DD007B0BDE8F08F4046D3
:1073F00001F086F996E74168D1E90223013308BF1D
:10740000B2F1FF3F3FF462AF374801F065F95DE745
:107410000021384600F0B8FA304B1B78002BD9D049
:10742000384600F0CDFAD9E900232E49D1E900AB66
:10743000121843F100035B4508BF524503D212F115
:10744000807243F10003D5E902018B4208BF8242FA
:107450001CD2013108BFB0F1FF3FBBD029464046E6
:1074600001F03AF9B6E7236863B1256007B0BDE8DB
:10747000F08F384600F0A4FA1D4A0244A0E700232A
:10748000236023E7304600F0BBF9EEE72846FFF71C
:1074900083FE9FE71248134D00F092FA0D4BD3E99B
:1074A0000089D5E9002318EB000849F10009994546
:1074B00008BF904503D218F1807849F10009C5E969
:1074C0000089F5E6304600F09FF98DE72846FFF782
:1074D00063FEE4E6103300209033002018330020D0
:1074E000E02A002088330020444003007433002049
:1074F000FFFFB40010B5134B13491B68134882B04B
:1075000058220193082300F07BFA044610B120466C
:1075100002B010BD0E4A0F4801A900F011F904464F
:107520000028F4D10B48012100F014FA0123194678
:10753000094A084800F06CF9084B012220461A70ED
:1075400002B010BD404003001C3300207433002003
:107550001D720200E02A0020FFFF7F001833002088
:107560008AB130B4A1F101010368B1FA81F14FF0A1
:10757000FF344FF0FF354909C3E90412C3E902455E
:10758000002030BC70470720704700BF2DE9F04352
:1075900083B00546002401A817460E468DF8044026
:1075A00000F090F8D5E90223013308BFB2F1FF3FA4
:1075B00007D09DF8040000F0ABF8204603B0BDE80A
:1075C000F0831D4800F0FCF91C4B1D49D3E9002352
:1075D000D1E90089121843F100034B4508BF424529
:1075E00025D3921943F10003C5E902239DF8040055
:1075F00000F08EF82B69AF6103B12E61114801A92B
:1076000000F016FA78B100244560047001A90D4815
:1076100000F03CFA0028D1D0074800F0D5F9204608
:1076200003B0BDE8F083042003B0BDE8F08312F19D
:1076300080726341D5E700BFE02A002010330020AC
:10764000883300207433002030B583B00446002511
:1076500001A88DF8045000F035F8D4E90223013375
:1076600008BFB2F1FF3F1BD04FF0FF324FF0FF33A6
:107670009DF80400C4E9022300F04AF80F4801A96C
:1076800000F0D6F948B101234460037001A90B480A
:1076900000F0FCF958B903B030BD042003B030BD90
:1076A0009DF8040000F034F8284603B030BD0448CB
:1076B00000F08AF9284603B030BD00BF74330020C3
:1076C000E02A002070B4EFF3108472B60D4B9A6874
:1076D000AAB90D490D4E01259D60D1F88050354065
:1076E0001D60C1F88060D1F884505D604FF0FF33B9
:1076F000C1F88430027004B962B670BC70470123CF
:107700000370F8E7EC45002000E100E0FC06FFBD57
:10771000094B9A687AB170B910B4EFF3108172B660
:10772000064A1C6814605C685460986001B962B6CF
:107730005DF8044B70477047EC45002000E100E025
:1077400070B5274C4379274E04EBC30546F8232038
:107750002D79002D37D103680A88C3F8082590F9E0
:1077600004308A78002B26DB03F1604303F5614384
:107770005201D2B283F8002390F90430002B07DBCA
:10778000194903F01F0501225B09AA4041F8232093
:107790004279164B164D44F83200581B04EBC204D4
:1077A000C008012300041349237140F00300FEF7D1
:1077B000D7FF002070BD104903F00F035201194498
:1077C000D2B20A76D8E70A4B08480C49C01AC0085A
:1077D000000440F00200FEF7C3FF082070BD00BFA8
:1077E000943300209C33002000E100E0F4580300B3
:1077F0009C58030074400300FCEC00E05040030080
:10780000036801221A607047036801225A607047BA
:10781000F0B404684FF480358D40C4F8085306680E
:1078200001F15004C6F84853A4000668A4B200272A
:10783000375182B036590468019601F5A87122F0DB
:107840007F42019E44F821200268C2F8445313B1DC
:107850000368C3F8045302B0F0BC70472DE9F04749
:1078600004464FF4803600688E40C0F848632068B4
:10787000C0F80863206800EB81058A46D0F804153B
:10788000D5F84005C5F840150AF15005AD00276848
:10789000ADB24FF0000847F8058082B0401A7F591A
:1078A000009720F07F40012822F07F479946009AF8
:1078B00041D02268D2F80455C2F844637A1B22F002
:1078C0007F42012A0AF5A87125D0226842F821706A
:1078D0002068D0F804557A1BC9F1FF13013A03F56B
:1078E0007F4322F07F42934211D342B1C0F84463F8
:1078F00023680020C3F8046302B0BDE8F0870137B5
:1079000040F821702068D0F804359D42EED00D205B
:1079100002B0BDE8F08720680D4B013740F82170B8
:1079200043F001034FF4806098472068D0F8043595
:107930009D42DBD0EBE7064A4FF4806042F0010243
:107940009047226842F8058052590192019AB0E7A7
:107950009040030002680223C2F8443311B1026868
:10796000C2F80433704700BF0368D3F8040100B9BC
:107970007047002282B0C3F80421D3F80431019388
:10798000019B012002B0704702684FF4803303FA74
:1079900001F1C2F848130368C3F80813704700BF29
:1079A00050318900036889B2585800B970470022E5
:1079B0005A5082B05B580193019B012002B070477E
:1079C0000368D3F80405704790F90430002B09DBF5
:1079D0005A090548403203F01F03012101FA03F35D
:1079E00040F82230704700BF00E100E0024A034B3C
:1079F00010681B68184700BF943300209C33002098
:107A000099B110B4B2FBF3F403FB1424A4B244B94B
:107A1000C0E9001484608281C38120465DF8044B74
:107A2000704709205DF8044B70470E20704700BF77
:107A300030B482B050E8013F9DB2C48925448489A6
:107A4000A54228BF2D1B0489A54202BFBFF32F8F7B
:107A5000002207E0C5EA030540E80154002CE9D103
:107A60004FF001028DF803200193019B9DF8032044
:107A70000B602AB10B880068184402B030BC704714
:107A800002F0FF03184602B030BC70470A884B88EA
:107A90009A4201D00020704750E8012FC2EA02420A
:107AA00040E80123002BF7D10120704730B482B0A9
:107AB00050E8023F1FFAA3F5C488A54202BFBFF3F6
:107AC0002F8F00220DE0C48925448489A54228BF58
:107AD0002D1BC3EA054540E80254002CE8D14FF0C5
:107AE00001028DF803200193019B9DF803200B6098
:107AF0002AB14B880068184402B030BC704702F0CD
:107B0000FF03184602B030BC704700BF0A884B889C
:107B10009A4201D00020704750E8022FC2EA224268
:107B200040E80223002BF7D1012070474A090123C6
:107B300001F01F0100EB820003FA01F100F022B80E
:107B400001F01F0201234909934000EB8100D94352
:107B500000F026B84B0901F01F0150F82300C8407F
:107B600000F00100704700BF10B4034653E8000F57
:107B70000A4643E8002494F0000FF7D15DF8044B67
:107B8000704700BF10B4034653E8002F42EA0100DB
:107B900043E8000494F0000FF6D15DF8044B704701
:107BA00010B4034653E8002F02EA010043E8000442
:107BB00094F0000FF6D15DF8044B704710B4034603
:107BC00053E8002F02EB010043E8000494F0000F9B
:107BD000F6D15DF8044B704710B4034653E8002F0C
:107BE000A2EB010043E8000494F0000FF6D15DF829
:107BF000044B704710B40346012253E8001F41EACA
:107C0000020043E8000494F0000FF6D15DF8044B45
:107C1000704700BF10B40346002253E8000F00EA8B
:107C2000020143E8001494F0000FF6D15DF8044B14
:107C3000704700BFB8B130B4D0E90112521A0468DD
:107C4000D2B2531E2160DBB242B101680A685C1EE9
:107C5000551C0D601370E3B2FF2BF6D103680020B2
:107C6000187130BC70470E20704700BFF0B583B06C
:107C7000044600250DF107008DF80750FFF722FD9F
:107C8000D4E900311A688A4210D9511E196021685E
:107C9000A3680F6812F8015C0A79268AE068DB1B8A
:107CA000DBB29A4206FB050538BF0B719DF8070051
:107CB000FFF72EFD284603B0F0BD00BF30B50546E6
:107CC00083B000230DF107000C468DF80730FFF755
:107CD000F9FC2A681368591C1160E9682A8A641A39
:107CE000B4FBF2F41C709DF80700FFF711FD03B020
:107CF00030BD00BF826842B110B5044643690168D7
:107D0000006998470023A36010BD70470EB400B50A
:107D100082B0039921B104AB01AA019300F0ACF841
:107D200002B05DF804EB03B0704700BF2DE9F04FDF
:107D3000164683B0B142DDE90C920F4605469A46DD
:107D4000C0F095800B464FF00108B3FBF6F39E425E
:107D500008F10108F9D9D04538BFD04612F0010327
:107D6000019302D1B9F1000F5ED1AA68012403E0AA
:107D70000AF1FF3A06FB04F4BAF1010FF8D8B7FB99
:107D8000F4F39E42F6D9DFF8ECA007E0B442B4FB6E
:107D9000F6F31AD3AA681C46B7FBF3F31AF803B03C
:107DA000BBF10A0F04FB137728D02B68511CA96084
:107DB00003F802B0D5E901329A42E7D32846FFF72B
:107DC00099FFB4FBF6F3B442E4D2019B9BB1B9F145
:107DD000000F10D02024C84509F1FF390BD2AB6841
:107DE0002A68591CA960D454D5E901329A4214D2A8
:107DF000B9F1000FEFD103B0BDE8F08F511C2B6833
:107E0000A9604FF00D019954D5E901329A42CCD3C3
:107E10002846FFF76FFFAA68C7E72846FFF76AFF03
:107E2000B9F1000FD7D1E6E793071AD42024AA6846
:107E3000C84502F1010199D22B68A9609C54D5E98B
:107E400001329A4209F1FF3903D2B9F1000FEFD1A3
:107E50008CE72846FFF74EFFAA68B9F1000FE7D17B
:107E600084E7BAF1000F0CBF30242024DFE74FF085
:107E7000010870E798400300002900F054822DE9C2
:107E8000F04FDFF8B8950C7885B0064690460D4661
:107E90004FF00D0A10E00A2CB36800F0AD80326894
:107EA000591CB160D454D6E901329A4280F0A080C6
:107EB0002C78002C00F087800135002C00F08380A6
:107EC000252CE8D1294600270D4611F8012B2D2A33
:107ED00000F08880302A00F088802B2A7AD02A2A65
:107EE00000F09980A2F13003092B4FF000040BD869
:107EF00004EB840402EB440415F8012FA2F13003D3
:107F0000092BA4F13004F3D92E2A00F0908000232D
:107F100001E015F8012F02F0FB016829F9D0252AAC
:107F200000F07781583AD1B2202947D8202A45D885
:107F3000DFE812F0350144004400440044004400EE
:107F40004400440044004400440043011301440041
:107F50004400440044001301440044004400440031
:107F600044004400D20044004400A20044009400B5
:107F700044004400350101209842024638BF1A46A9
:107F80000292002C40F05081B80740F16E81002B26
:107F900040F04E821C46BBF1000FC0F20A827A0705
:107FA00000F11A8207F00302022A00F0EA81CDE90B
:107FB000004759460A223046FFF7B8FE01352C78B3
:107FC000002C7FF479AF337B002B40F01C8105B08F
:107FD000BDE8F08F0D4611F8012B2D2A47F004075C
:107FE0007FF478AF47F001076EE747F002076BE7D1
:107FF0003046FFF77FFE5BE73268591CB16002F83C
:1080000003A0D6E901239342FFF449AF3046FFF7BE
:1080100071FEB36843E7D8F800301A1DC8F8002095
:108020006A781C682E2A05F101057FF470AF6A7822
:10803000A2F13003092B05F101054FF000033FF6D3
:108040006AAF03EB830302EB430315F8012FA2F1A0
:1080500030010929A3F13003F3D95CE7D8F80020F7
:10806000111DC8F8001011683046CDE900470A22FA
:10807000FFF75CFE0135A2E7D8F800301A1DC8F8FA
:10808000002017F00107D3F800B040F0F080BBF1FA
:10809000000F03D0584608F0A7F80746BC4240F24C
:1080A0004381002C00F04081202205E0BC4200F01A
:1080B0003B81002C00F03881B1683368481CB06007
:1080C0005A54D6E90130984204F1FF34EED33046D9
:1080D000FFF710FE2022E9E7D8F80020131DC8F8AA
:1080E0000030B36831681768581C3022B060CA5439
:1080F000D6E90123934280F0EF803268581C782142
:10810000B060D154D6E901329A4280F0E0800F2F5E
:1081100003D93B461B090F2BFCD84FF0805406E0D7
:108120000F2C4FEA14137FF649AFB2681C46B7FB19
:10813000F4F319F803B0BBF10A0F04FB137754D022
:108140003368511CB16003F802B0D6E901329A429B
:10815000E6D33046FFF7CEFDE2E7D8F80020111D48
:10816000C8F80010D2F800B08BEAEB72A2EBEB7209
:10817000092A7FF700AFDFF8C8C201201146632942
:10818000ACFB02E200F101004FEAD202F6DC9842B9
:10819000024638BF1A460292002C45D1F4E6D8F8C0
:1081A0000020111DC8F8001011683046CDE90047C5
:1081B0001022FFF7BBFD013501E7D8F800301A1D8A
:1081C000C8F800201C78B3680A2C00F011813268CE
:1081D000591CB160D454D6E901329A42FFF4EEAE94
:1081E0003046FFF787FD0135E9E63368511CB16081
:1081F00003F802A0D6E901329A42A1D33046FFF734
:1082000079FDB2689CE7304605B0BDE8F04FFFF756
:1082100071BDB3683168581CB060CA54D6E90132E8
:108220009A42DDD20135CAE6BBF1000F59DB7A076D
:1082300057D4B80702D5002B3FF4ADAEF9073FF590
:10824000AAAE94B120220299A142BFF4A4AEB168B3
:10825000481CB06030684254D6E90101814204F103
:10826000FF3480F0D480002CEDD1002493E69BF8FD
:108270000030002B00F0E080B0685F46CBF10102D7
:108280000A2B02EB070B3CD0411CB16031680B5448
:10829000D6E90130984226D217F8013F002BEFD1E2
:1082A0005C457FF68BAE202702E05C453FF486AE4E
:1082B000B2683368511CB1609F54D6E901329A42CA
:1082C00004F1FF34F1D33046FFF714FDEDE73046FB
:1082D000FFF710FDB2681AE73046FFF70BFDB368F1
:1082E0000BE7013CA5E730460292FFF703FD17F8C4
:1082F000013F002BD4D0029AB0680A2B02EB070B87
:10830000C2D1411CB160316801F800A0D6E901106A
:108310008842B9D33046CDE90232FFF7EBFCDDE904
:108320000232B068B0E770479BF80040002C3FF481
:1083300045AE0A2CB0680ED03368421CB2601C54A3
:10834000D6E90130984214D21BF8014F002C3FF4BB
:1083500035AE0A2CF0D13368421CB26003F800A09D
:10836000D6E901309842E7D33046FFF7C3FCB06846
:10837000E2E73046FFF7BEFC1BF8014F002CD8D1D6
:108380001CE6002B7FF413AE8CB130220299A1427F
:10839000BFF40DAEB168481CB06030684254D6E9F5
:1083A0000101814204F1FF343BD2002CEED10024C4
:1083B000FDE5B1684A1CB26032682D205054D6E900
:1083C00001219142CBF1000BFFF4ECAD3046039359
:1083D000FFF790FC039BE5E5B1684A1CB260326888
:1083E0002B205054D6E901219142FFF4DBADEDE79B
:1083F0003268591CB16002F803A0D6E90123934208
:10840000FFF4E5AE3046FFF775FCB368DFE63046B3
:108410000393FFF76FFC039B2022002C7FF413AF24
:1084200023E730460393FFF765FC039B3022BCE74C
:10843000F9073FF5B0AD18E79B4631E798400300D8
:10844000CDCCCCCCFFF7F6BB2DE9F041058A03314A
:10845000043D4E198046B6FBF5F6FFF707FCA0B3C6
:10846000F6B24FF48073013E0446C580C0F8008028
:1084700083802BD00346002508E06279AE4202F1EA
:10848000010262713860C0F800801FD040461F466C
:10849000FFF7ECFB013503460028EED16779791E22
:1084A00017D02246013399421268FBD1D2F80080DE
:1084B0005FB12668002501E0344636682146013563
:1084C0004046FFF7FBFBAF42F6D800242046BDE84C
:1084D000F08120682146FFF7F1FBF6E70430012127
:1084E000FFF76CBB2DE9F041012104460430FFF792
:1084F00073FB10F0FF0301D0BDE8F0816779791EAE
:1085000016D02246013399421268FBD1D2F800807E
:10851000002FF1D02668002501E034463668214658
:1085200001354046FFF7CAFBAF42F6D8BDE8F081FF
:1085300020682146BDE8F041FFF7C0BB2DE9F843B4
:108540000546C6884079144606FB00F2043A04EB5F
:10855000030C1F1D624538BFD41ABE428846B7FBC4
:10856000F6F106FB117002D801392D68FCD1371ADB
:10857000A74228BF27469CB14FF000090430E41BF6
:1085800028443A4608EB090107F0F0FDA642B94439
:108590002D6837464FF0000028BF2746002CEDD14C
:1085A000BDE8F8832DE9F8430546C68840791446AE
:1085B00006FB00F2043A04EB030C1F1D624538BFB2
:1085C000D41ABE428846B7FBF6F106FB117002D8FA
:1085D00001392D68FCD1371AA74228BF27469CB124
:1085E0004FF0000904302918E41B3A4608EB090053
:1085F00007F0BCFDA642B9442D6837464FF0000095
:1086000028BF2746002CEDD1BDE8F88341DF704735
:10861000064A074B10B5002414701C60BFF35F8F2F
:108620000449054800F042F8204610BDA833002058
:10863000AC330020B4400300A033002000B583B069
:1086400000230DF107008DF80730FFF73BF8F1EE3E
:10865000103A23F09F03E1EE103ABFF35F8F0B4B0C
:108660004022C3F884219DF80700FFF751F807F076
:1086700091FB28B920BF40BF20BF03B05DF804FBC9
:10868000FFF7C4FF03B05DF804FB00BF00E100E0AA
:1086900082680023936082681361826853618268F4
:1086A000D3608268536082681360704701600B6812
:1086B00043604A68934204BF00234360704700BF91
:1086C000436843B1026891680B4443605268934227
:1086D00004BF00234360704770B5446806462068B5
:1086E0000D4618B908E02468206828B1B368294607
:1086F00098470028F7D120682860256070BD00BF2A
:108700004368186808B102681A60704743681868BF
:10871000704700BF4368186818B908E0034600684E
:1087200028B18142FAD10A681A6001207047704767
:10873000114910B4A1F5947205E052F83330984213
:1087400038BF21460CD28C1AE30F03EBE4035B1015
:10875000914202EBC304F0D808485DF8044B70471F
:1087600002D904F10802EEE76068044B5DF8044B9F
:10877000002808BF18467047F4450300B8440300BA
:10878000BFF34F8F0549064BCA6802F4E0621343FA
:10879000CB60BFF34F8F00BFFDE700BF00ED00E0EF
:1087A0000400FA0538B5B44B1B68581C04BFB34B22
:1087B0001B78062B05D1B24BB24A1B68C3F30423C6
:1087C0001360AE4B1B78062B00F00181AA4B1B688F
:1087D000591C04BFA94B1B78062B05D1AA4BAB4AE9
:1087E0001B68C3F342331360A44B1B78062B00F0C5
:1087F000DB80A14B1B685A1C04BFA04B1B78062BC7
:1088000008D14FF080430022C3F80C21C3F8102197
:10881000C3F83825994B1B78062B00F0A580964BA2
:108820001A68551C28D09A4B062A1B682CD0994AE6
:10883000D2F8883043F47003C2F88830BFF34F8F0A
:10884000BFF36F8F8C4B1B68062B00F0D1804FF06D
:108850001023D3F80C22D10700F17081D3F8002245
:10886000002AC0F24581D3F80432002BC0F24081C7
:10887000894B8A4A1A6038BD8049894B09781B6840
:108880000629D4D1C3F30313033B042B40F2CA805F
:108890004FF08052834BD2F80414C3F82015D2F85D
:1088A0000814C3F82415D2F80C14C3F82815D2F80C
:1088B0001014C3F82C15D2F81414C3F83015D2F8DC
:1088C0001814C3F83415D2F81C14C3F84015D2F8A4
:1088D0002014C3F84415D2F82414C3F84815D2F86C
:1088E0002814C3F84C15D2F82C14C3F85015D2F83C
:1088F0003014C3F85415D2F83414C3F86015D2F804
:108900003814C3F86415D2F83C14C3F86815D2F8CB
:1089100040145948C3F86C15D2F844140268C3F8DF
:108920007015541C00F0A280062A80D15E4B524A7A
:108930001B6812685D4903F04F03501C0B6077D031
:10894000062A7FF474AF4FF08043D3F80034DA077F
:108950007AD44F4B1B68033B042B5DD9544A1368F0
:1089600043F48063136062E74D4B1B68C3F303134A
:10897000033B042B3FF653AF4E4AD25C12B14E4A32
:10898000032111604D4AD35C002B3FF448AF4C4AA1
:108990004C4C4D494D4B05201060012500203F22D5
:1089A000256008601A603AE73D4B1B68C3F3031368
:1089B000033B042B3FF61DAF454AD35C002B3FF42D
:1089C00018AF444AD36823F08073D36011E7344B67
:1089D0001B68C3F30313033B042B3FF6F7AE3E4A79
:1089E000D35C002B3FF4F2AE3C4B3D4A1A60EDE6FF
:1089F000274B1B68033B042B08D94FF010224FF084
:108A00008043D2F80822C3F8582520E7354AD35CC2
:108A1000002B3FF41CAFF0E7334AD35C002B3FF44C
:108A200006AF9BE73149CB5C002B3FF47AAF2FE7D1
:108A3000124B1B78062B7FF4FAAE4FF08043D3F82D
:108A40000034DB077FF5F3AE0B4B1B684FF0804221
:108A50006FF00101062BC2F800147FF4E8AE0C4B56
:108A60001B68033B042B3FF679AFD5E7034B1B781C
:108A7000062B3FF45BAFDAE630010010E00F00F0A8
:108A80002403001040350140440200103C05004022
:108A90003401001000ED00E0E82A00200090D0032F
:108AA000E80F00F000C0004058020010E40E004043
:108AB0003C1700400C460300A00500400C46030094
:108AC000105600408856004018560040145600408A
:108AD0000C460300F0ED00E00C46030074C00740B4
:108AE0000DF0ADBA04460300FC450300F445030055
:108AF000214A0123C2F80435D2F80034002BFBD000
:108B00004FF0102315211C4AC3F80012D2F800348C
:108B1000002BFBD04FF010231521174AC3F8041285
:108B2000D2F80034002BFBD000231349C2F80435DF
:108B3000D1F80034002BFBD0FFF722FE0E4B0122B0
:108B4000C3F80425D3F80024002AFBD04FF01021ED
:108B5000094AD1F80C3223F00103C1F80C32D2F8E3
:108B60000034002BFBD000230349C2F80435D1F8B0
:108B70000034002BFBD0DFE700E0014010B568B9FE
:108B80000E4CA368012262703BB1D3E900230020A0
:108B9000A2609847A368002BF7D110BD0128FCD133
:108BA000064C2369A070002BF7D0D3E900230120E5
:108BB000226198472369002BF7D110BDB033002004
:108BC00070B910B5074CA368012262703BB1D3E9BC
:108BD00000230020A2609847A368002BF7D110BDA6
:108BE000704700BFB033002030B5012883B004D0F7
:108BF000032821D0B0B103B030BD294C00230DF1C2
:108C000007008DF80730FEF75DFD23786BB3E3684E
:108C10009DF8070001330122E360A270FEF778FDA2
:108C200003B030BD1F4B0122C3F88020BFF34F8F2C
:108C3000BFF36F8F03B030BD194C00F0B9F80023BB
:108C40000DF107008DF80730FEF73CFDE368013BAE
:108C5000E360E3681BB9144BD3F80054C5B19DF829
:108C60000700FEF755FD03B030BD10486360A360F8
:108C70002361E36000F090F807F08CF860B10A4AD5
:108C800001232370D2F80024002AC0D0A370BEE7CD
:108C900000F0A0F8A570E2E700F08AF8EFE700BF67
:108CA000B033002000E100E0000001407D8B0200B5
:108CB00030B585B0047845688DF80040D0E90240B1
:108CC000064A074B039053F82130019552F82110C2
:108CD0008DF808406846984705B030BDC433002081
:108CE000C833002030B585B0047845688DF8004061
:108CF000D0E90240064A074B039053F82130019512
:108D000052F821108DF808406846984705B030BDEC
:108D1000C4330020C8330020F0B51A4B90F800C0CF
:108D2000194C1A4D91F81DE044F82C2007460869AB
:108D300045F82C0003F80CE00C4616460FCC89B021
:108D40006D460FC594E80F0085E80F00CDF810C000
:108D5000BEF1000F0AD0002E0D4A694607F104004B
:108D600008BF324600F0D2FE09B0F0BD002E094A1D
:108D7000694607F10C0008BF324600F0BBFB09B0A2
:108D8000F0BD00BFF8450020C8330020C4330020E8
:108D9000B18C0200E58C0200044A137923B9012149
:108DA000106091801846704785207047CC330020B2
:108DB000074B1A68D20704D4C02283F8002301228B
:108DC0001A604FF080430122C3F81825704700BF96
:108DD00000E100E010B40B4B0B494FF08042002043
:108DE0000224C2F8084383B018601B680193012372
:108DF00001980B60D2F81834DB03FBD403B05DF8A4
:108E0000044B7047040100400C00004010B5174BA4
:108E10001A6882B062B10021154A19601B68507946
:108E200000934FF080410123009CC1F8083398B1B2
:108E3000104B1A68BAB100221A601B6801934FF0F8
:108E4000804202210A4B0198C2F808131B680120D6
:108E500002B0BDE810401847116853718847054BB0
:108E60001A68002AE7D102B010BD00BF000100401F
:108E7000CC33002004010040F0B585B0C84A00237F
:108E800001931168012900F0E7811E46C54B1A685D
:108E9000012A00F0D381C44B1A68012A00F0C08176
:108EA000C24B1A68012A00F0AD81C14B1A68012A31
:108EB00000F09A81BF4B1A68012A00F08781BE4BEF
:108EC0001A68012A00F05D81BC4B1A68012A07D09C
:108ED000BB4B1A68012A00F0CB81FEB905B0F0BD8A
:108EE000B84AD2F804231206F2D500221A60196893
:108EF0000291196E0298012903F1600346F0800681
:108F00000CD11A601B6803934FF0A043039AD3F867
:108F100020250192C3F8202546F00046AA4F0024E0
:108F20000125A30003F180432E4203F5C0434FEA1D
:108F300045050BD0D3F8100557F82420D3F81015A9
:108F4000C0F30420C1F3014102B190470134082C61
:108F5000E7D1002EC2DA9C4C01254FF0A04694F9CF
:108F60005000471C3DD0C0F3C20204AB1A4400F0CD
:108F7000070312F80C2C05FA03F31A42C1B200F0F1
:108F80003F002ED0830003F1A04305FA00FCD3F884
:108F90000027D3F8007727F44037C3F80077C2F3EF
:108FA0000142D3F80077022A0CBF4FF4403E4FF441
:108FB000003E4EEA070E2718C3F800E7C6F820C5A2
:108FC00097F9303054F823305BB18909032900F058
:108FD0007181022A00F06B81032A02D1022900F07C
:108FE000698194F95100411C3DD0C0F3C20204AB29
:108FF0001A4400F0070312F80C2C05FA03F31A4286
:10900000C1B200F03F002ED0830003F1A04305FA67
:1090100000FCD3F80027D3F8007727F44037C3F8D3
:109020000077C2F30142D3F80077022A0CBF4FF455
:10903000403E4FF4003E4EEA070E2718C3F800E703
:10904000C6F820C597F9303054F823305BB1890950
:10905000032900F02581022A00F01F81032A02D192
:10906000022900F01D8194F95200421C3DD0C0F34A
:10907000C20204AB1A4400F0070312F80C2C05FAE4
:1090800003F31A42C1B200F03F002ED0830003F177
:10909000A04305FA00FCD3F80027D3F8007727F4A3
:1090A0004037C3F80077C2F30142D3F80077022AB1
:1090B0000CBF4FF4403E4FF4003E4EEA070E271817
:1090C000C3F800E7C6F820C597F9303054F82330CC
:1090D0005BB18909032900F0DE80022A00F0D88004
:1090E000032A02D1022900F0D68094F95300431CD0
:1090F0003DD0C0F3C20204AB1A4400F0070312F8DB
:109100000C2C05FA03F31A42C1B200F03F002ED036
:10911000830003F1A04305FA00FCD3F80027D3F83D
:10912000007727F44037C3F80077C2F30142D3F841
:109130000077022A0CBF4FF4403E4FF4003E4EEA47
:10914000070E2718C3F800E7C6F820C597F9303096
:1091500054F823305BB18909032900F0A680022A64
:1091600000F0A080032A02D1022900F09E80D6F8E8
:1091700020350193C6F82035002B7FF4F0AE05B002
:10918000F0BD104AD2F8042351067FF59DAE0022AF
:109190001A601B680293029B46F0400694E600BFEB
:1091A0000061004004610040086100400C61004023
:1091B0001061004014610040186100401C610040D3
:1091C0007C61004000600040D83300203A4AD2F869
:1091D000042390067FF573AE00221A601B68029389
:1091E000029B46F020066AE6334AD2F80423D406EE
:1091F0007FF560AE00221A601B680293029B46F066
:10920000100657E62C4AD2F8042315077FF54DAE19
:1092100000221A601B680293029B46F0080644E68F
:10922000254AD2F8042357077FF53AAE00221A6088
:109230001B680293029B46F0040631E61E4AD2F8F0
:10924000042392077FF527AE00221A601B68029361
:10925000029B46F002061EE61749D1F8046316F099
:1092600001063FF413AE136013680293029B0DE6F0
:1092700000221A601B6803934FF0A043039AD3F8AF
:1092800020250192C3F82025002E3FF464AE43E66A
:1092900001297FF42AAF984727E701297FF4E3AE3D
:1092A0009847E0E601297FF462AF98475FE701291C
:1092B0007FF497AE984794E600600040014B1B682E
:1092C000184700BF34340020114B98421DD130B5EF
:1092D00083B000230DF107008DF807300D46FEF72F
:1092E000F1F90C4B1C794CB99DF807001D60012267
:1092F0001A71FEF70DFA204603B030BD9DF8070045
:10930000FEF706FA112003B030BD0020704700BF01
:109310000020004034340020034B984203D1034B1B
:1093200000221A601A717047002000403434002077
:1093300030B56E4AD2F8043399058BB068D5D2F8AF
:109340002431002B64D00023C2F82431D2F8243118
:1093500001934FF40171664B0198C2F8081393F81A
:10936000291009B901215160604902228DF81820A5
:10937000D1F88024C1F880249869D9680992002422
:109380000025CDE90710C3E90645D3E9001206A878
:109390009047564AD2F81C31C3B1554B5869196AE7
:1093A00088426AD993F8281001F0FF00002964D19F
:1093B000C2F81C01D2F81C11039103999C68186A29
:1093C000196A205C01311962C2F81C05474AD2F8BB
:1093D0004431DBB10021464BC2F84411D2F84401BC
:1093E00093F829100090009809B1012111609A6941
:1093F00062B1586AD96800229A610122CDE907104A
:109400008DF8182006A8D3E9001290470BB030BDA4
:10941000364AD2F804335B07BBD5D2F80831002BAB
:10942000B7D0334B996900293ED00021C2F808110A
:10943000D2F8081104910499D868596AD2F818250D
:1094400042545A6A996901325A625A6A8A42A0D1D0
:10945000DA69002A31D0DD685C6A18699A610121F5
:109460000022D860DA615A628DF81810CDE90754ED
:10947000D3E9001206A890478BE71C4A0021C2F8E6
:109480001C11D2F81C210292029A5A69002A9DD01E
:1094900058699A688DF8181008905961079206A8C3
:1094A000D3E90012904791E7C2F80811D2F80801F9
:1094B00005900598D2F81825C7E793F8292012B926
:1094C0000A4A01215160094A4FF40171C2F8081398
:1094D000596ADA6808910024012007928DF8180073
:1094E000D3E900129C6106A8904752E70020004093
:1094F000403400202DE9F041624F06792C2303FB14
:10950000067382B093F82A30002B40F08D80054618
:109510000C4600685C499046FFF7D6FE00287FD1D4
:109520002368591C0CD001224FF0A04102FA03F32A
:10953000C1F80835236803F5E073032241F82320BE
:1095400063685A1C06D003F5E0734FF0A042002177
:1095500042F823102B68A269C3F82425217D637D7E
:109560002A680B43C2F86C35D4E900122B68C3F8A3
:109570001425C3F80C15237D012B61D02C2303FB8C
:1095800006F3FA18C2F804802269FA502A68B8F182
:10959000000F33D00021237FC2F81C11D2F81C2108
:1095A00000922A68DDF800C0C2F84411D2F84411D4
:1095B0002A680191354C0199C2F804432A6842F3A4
:1095C000073100294FEA123232DB01F1604101F527
:1095D00061415B01DBB281F800332A6842F3073353
:1095E000002B4FEA123109DB294C01225B0901F003
:1095F0001F0102FA01F144F823102A682C2303FB0F
:109600000676012400230421C2F80015C6E90633BA
:1096100086F82A4086F82930736102B0BDE8F081EF
:10962000112002B0BDE8F081082002B0BDE8F08151
:10963000184902F00F025B011144DBB20B76CCE754
:10964000A368591C06D003F5E0734FF0A042002137
:1096500042F82310E3685A1C0DD001224FF0A041BC
:1096600002FA03F3C1F80835E36803F5E073032257
:1096700041F82320E3682A68A168C2F80835C2F8D7
:1096800010157BE740340020319302008000020077
:1096900000E100E0FCEC00E0F8B5334E047902682C
:1096A0002C2303FB046300215B68C2F80015C3B1DF
:1096B00003682E4AC3F80823036843F30732002ADD
:1096C0004FEA13310EDB5209294D2032012301F0FC
:1096D0001F0103FA01F145F82210BFF34F8FBFF3CA
:1096E0006F8F0368D3F80CC5D3F81475D3F8081539
:1096F000D3F810554FF0FF32C3F81425C3F80C25EA
:1097000003689445C3F80825C3F8102506D00CF566
:10971000E07C4FF0A043022243F82C207B1C06D0B3
:1097200007F5E0774FF0A043022243F827206A1C98
:1097300006D005F5E0754FF0A043022243F825203E
:109740004B1C06D001F5E0714FF0A043022243F814
:1097500021200068FFF7E0FD2C2303FB04640023B5
:1097600084F82A306360F8BD40340020840202008F
:1097700000E100E02DE9F041314E05792C2303FB97
:1097800005630446586984B000284CD15A61996039
:10979000186283F828002268C2F81C01D2F81C1154
:1097A000226802910121029F91602268D3F808C0CB
:1097B000C2F81C01D2F81C11019101991F6A196AA3
:1097C0001CF8077001311962C2F81C755A6812B191
:1097D00004B0BDE8F0815F691A6A216897421BD91D
:1097E000864602E093F828200ABBD1F81C21002A03
:1097F000F8D0C1F81CE1D1F81C210392039AD3F8E8
:1098000020801A6A1CF8088001321A62C1F81C858F
:109810001A6A9742E9D82168D1F81C31002BFBD095
:109820000123CB6004E0112004B0BDE8F0810F20DB
:109830002C2303FB056500236B6104B0BDE8F081B8
:10984000403400200379044A2C2101FB032358698A
:10985000003818BF0120704740340020F0B4504F4A
:1098600006792C2303FB067386B05D68044625B198
:1098700003684FF40170C3F808032C2303FB06733D
:10988000986990B1D86900287CD11961DA612C23DC
:1098900003FB06735A683AB323684FF40172C3F8A6
:1098A0000423002006B0F0BC704793F829509A6159
:1098B000D9605862D861002DE9D12368C3F82451DA
:1098C000D3F8242123680192019AC3F80851D3F8F0
:1098D000082123680292012202991A602C2303FBBB
:1098E00006735A68002AD7D12168C1F84421D1F8FB
:1098F00044210392039A2268D2F82411D2F8085125
:10990000D2F8440155B9002833D10029F4D02C23D2
:1099100003FB06760023B3610320C3E70029F6D1D9
:1099200048BB9969C2F8080181B1D2F808110491C5
:109930000499DD68596AD2F818256A545A6A9969F7
:1099400001325A625A6A9142D5D806E0D2F808111B
:1099500005910599D2F818255B6A2C2303FB06763E
:10996000002296F82930B261A3B1236801221A605F
:1099700098E70029CBD12C2303FB06760023B361A3
:109980000F208FE755B123684FF40172C3F8042309
:10999000112087E7236801225A6083E7112081E7BD
:1099A0004034002030B5574BD3F824218BB0002A27
:1099B00075D00022C3F82421D3F824210492022276
:1099C0008DF81820049AD3F880144F4AC3F88014F5
:1099D0000991D3F83C15D36808910024002507931A
:1099E000C2E906451168536806A89847454BD3F865
:1099F000442152B10021444AC3F84411D3F8440130
:109A0000916903900398002938D13E4BD3F8202167
:109A10005AB10021C3F82011D3F82021029201206D
:109A2000394A029CD8605069D8B9364BD3F85821CE
:109A3000AAB10021C3F85811D3F85801324A019055
:109A40000198506958B1D3F84C05936808908DF887
:109A500018105161079306A8D2E9001398470BB07C
:109A600030BDD3F84C05936808908DF818105161FB
:109A7000079306A8D2E900139847D6E7D3F83C35F8
:109A8000D168089300240025012307918DF8183030
:109A9000C2E90645D2E9001306A89847B5E7D3F80E
:109AA00010110029A2D0C3F81021D3F810111648C4
:109AB000059105998469D3F83C15A14296D1C469F2
:109AC000A4B1D3F80052846125F02005C3F80052F8
:109AD000D0E90343C26101220891C3600168436871
:109AE00007948DF8182006A898477FE7C26884611C
:109AF0000123CDE907218DF81830D0E9001306A81D
:109B0000984773E700200040703400202DE9F043AF
:109B10000779704E07EBC70306EB830387B093F812
:109B20002030002B40F0A78004460D4600686A49AB
:109B30009146FFF7C9FB002840F099802B68591C1B
:109B40004FEAC7080CD001224FF0A04102FA03F3FC
:109B5000C1F808352B6803F5E073032241F8232090
:109B60006B685A1C06D003F5E0734FF0A042002149
:109B700042F823102368A969C3F82415297D6A7D5A
:109B800023680A43C3F86C25D5E900312268C2F87E
:109B90000C35C2F814152B7D012B78D008EB070289
:109BA00006EB8203C3F804902B6946F82230B9F122
:109BB000000F4BD021682B7F484D0022C1F81021A7
:109BC000D1F8101101912168DDF804C0C1F82021FD
:109BD000D1F8201102912168DDF808C0C1F82421D4
:109BE000D1F8241103912168DDF80CC0C1F844219B
:109BF000D1F8441104912168DDF810C0C1F8582152
:109C0000D1F85811226805910599C2F804532268C9
:109C100042F3073100294FEA123230DB01F1604193
:109C200001F561415B01DBB281F80033226842F348
:109C30000733002B4FEA123109DB294D01225B0962
:109C400001F01F0102FA01F145F823102268474490
:109C500006EB8706002301240821C2F80015C6E997
:109C6000063386F82040736107B0BDE8F083112009
:109C700007B0BDE8F083082007B0BDE8F0831949BC
:109C800002F00F025B011144DBB20B76CEE7AB684A
:109C9000591C06D003F5E0734FF0A042002142F8B2
:109CA0002310EB685A1C0DD001224FF0A04102FA9C
:109CB00003F3C1F80835EB6803F5E073032241F8BC
:109CC0002320EB682268A968C2F80835C2F810158D
:109CD00064E700BF70340020A59902001003420021
:109CE00000E100E0FCEC00E02DE9F04105794B4C8F
:109CF00005EBC50304EB830301465B68006882B093
:109D0000EE00C3B1464BC0F808330B6843F307328B
:109D1000002A4FEA13330EDB5209DFF808C1203264
:109D2000012703F01F0307FA03F34CF82230BFF3B7
:109D30004F8FBFF36F8F721904EB8202D0F800329D
:109D4000926923F02003C0F8003242B10023C0F82A
:109D50004431D0F8443100930123009A436000233A
:109D6000C0F85831D0F8583101937319012204EB2F
:109D70008303019FC2609A69D0F85831002BFBD051
:109D80001AB1D0F84431002BF6D00023C0F80035CA
:109D90000B684FF0FF32D3F80C85D3F814E5D3F8F5
:109DA0000875D3F810C5C3F80C25C3F814250B6843
:109DB0009045C3F80825C3F8102506D008F5E078CB
:109DC0004FF0A043022243F82820BEF1FF3F06D007
:109DD0000EF5E07E4FF0A043022243F82E20BCF1A6
:109DE000FF3F06D00CF5E07C4FF0A043022243F881
:109DF0002C207B1C06D007F5E0774FF0A043022211
:109E000043F82720FFF788FA354404EB8504002344
:109E100084F82030636002B0BDE8F0817034002027
:109E20001003420000E100E0F0B401F06044B4F13E
:109E3000005F82B02CD10579274E05EBC50406EBF7
:109E4000840403466069EF0000283ED16261A1608E
:109E50001A68C2F82001D2F820C11A68CDF804C0EF
:109E6000DDF804C0C2F85801D2F8582100921A68EF
:109E7000DDF800C0D4F814C0C2F84415C2F848C5D3
:109E80001A6801219160626832B102B0F0BC70477B
:109E9000102002B0F0BC70471A6800E0C8B9D2F8D0
:109EA0002011D2F858010029F8D090B90121D160D1
:109EB0001B68D3F85821002AFBD07B1906EB8303DB
:109EC00000225A6102B0F0BC7047112002B0F0BC11
:109ED00070470F20F1E700BF703400200379054A76
:109EE00003EBC30302EB83035869003818BF01205A
:109EF000704700BF7034002001F06043B3F1005F91
:109F00005ED1F0B40479474D04EBC40605EB860638
:109F100082B07668E30026B107684FF4047CC7F886
:109F200008C3234405EB83039C694CBB9A61DC6145
:109F3000D9600368C3F81041D3F810610368019633
:109F4000019EC3F84441D3F8444103680094009C47
:109F5000C3F83415C3F83825036801221A60047960
:109F600004EBC40305EB8303E6005B6853B30368AB
:109F70004FF40472C3F80423002002B0F0BC704711
:109F8000DC69002C37D11961DA610368C3F810412C
:109F9000D3F8106103680196019EC3F84441D3F8D9
:109FA000444103680094009CC3F83415C3F8382575
:109FB0000268D2F8003243F02003C2F80032CEE744
:109FC00010207047036801E0E9B910BBD3F81021F5
:109FD000D3F84411D3F82401002AF5D034440028E2
:109FE0004FF0000305EB840518BF0320994218BF0A
:109FF0000F20AB61C1E796B103684FF40472C3F858
:10A0000004231120B9E7344405EB84050F20AA612D
:10A01000B3E7344405EB84050320A961ADE71120C3
:10A02000ABE700BF703400202DE9F041644B1A68A3
:10A0300088B002BB634F97F82E30002B29D1624BBA
:10A040001A685AB100221A601B68039302218DF826
:10A0500014103B6803993A7405A898475B4B1C6839
:10A06000002C30D000221A601B680593059B3A74BF
:10A0700008B0BDE8F081534F00221A60196897F8C4
:10A080002E3000910099002B4ED097F82F30002BE6
:10A0900063D14F4B1A68002AD1D00021196018688B
:10A0A00097F82D207B8B01909342019894B263D84E
:10A0B00074D0434B474A002119601B680293012367
:10A0C00002991360BBE77E69002ED1D04FF00048A3
:10A0D0000125B6FA86F101F146039B0003F18042A7
:10A0E00002F5E042A3F58C73D2F800E083F004009F
:10A0F00028FA01F1C0F3800CDB0805A826EA010666
:10A10000BEF1000F0BD01460126804928DF8183065
:10A110008DF814503B688DF819C0049A9847002EAA
:10A12000D7D108B0BDE8F081FA68786839898DF830
:10A1300014300690ADF81C10002A2CD02648398B1C
:10A140007A600122FB607983398102603B6805A84F
:10A150009847002387F82F306DE7FB6878683989C6
:10A160008DF814200690ADF81C10A3B1398B7B60DC
:10A17000FA6079833981E9E7398978681B1B9BB2DA
:10A1800089B2154C7B83C91A00EB4101C4F82C1627
:10A19000C4F830268DE700233B74D7E7FB684BB14A
:10A1A0000D487983012187F82F10C0F82C36C0F8AC
:10A1B00030267EE701227B8387F82F2079E700BFD6
:10A1C000047100409434002010710040147100406C
:10A1D000007100400470004000700040234B93F871
:10A1E0002C20002A40D170B4214D04781960C5F8A4
:10A1F000F04544781F49C5F8F4456FF000441A74DF
:10A20000C678C5F8084385B00A60096803911A4901
:10A21000039C0A600968194C0291029922608178B6
:10A22000206801904901164883F82D205A6183F86F
:10A230002F20C9B20122019C83F82E6083F82C20C4
:10A2400080F807138021016093F82E300221C5F8B1
:10A2500004130BB1C5F80423054B01220020C3F8F9
:10A26000002505B070BC704708207047943400206A
:10A270000070004004710040007100401471004003
:10A2800000E100E09D499E4B6FF00040802270B4D9
:10A29000C1F80803C3F88020BFF34F8FBFF36F8F5F
:10A2A000984B01221A6001F58A7142F2107301E0A5
:10A2B000013B02D00A68002AFAD0934B8F4C187FDA
:10A2C00093F82D2059690025C4F800551D74002805
:10A2D00040F0F9809C7F002C40F0D78093F820401C
:10A2E000002C40F0B48093F82240002C40F0918084
:10A2F00093F82440002C6FD193F82640002C4ED1C7
:10A3000093F828404CB993F82A402CBB00283ED142
:10A31000002283F82C2070BC70471D7C05F0FF04E0
:10A32000002DF0D1794D75481C8593F82A60C5F849
:10A330001445C5F81045764CC0F87C454FF4002410
:10A34000C0F80843013A4FF48024D2B221F44021EE
:10A35000C0F80843DEB101201D7C05F0FF04002D8C
:10A36000D4D16C4D65485C85C5F81445C5F81045D9
:10A37000674CC0F88C45013A4FF400154FF4801437
:10A38000C0F80853D2B221F44031C0F8084383F832
:10A390002D200022596183F82C2070BC70471D7C51
:10A3A00005F0FF04002DABD15B4D5448DC84C5F8AB
:10A3B0001445C5F81045564CC0F86C45013A4FF4A9
:10A3C00000354FF48034C0F80853D2B2C0F80843C7
:10A3D00021F44011012093E71D7C05F0FF04002DBE
:10A3E0008AD14E4D45489C84C5F81445C5F81045A2
:10A3F000474CC0F85C45013A4FF400454FF48044A7
:10A40000C0F80853D2B2C0F8084321F4400101203B
:10A4100072E71D7C05F0FF04002D7FF469AF404D0D
:10A4200036485C84C5F81445C5F81045384CC0F86A
:10A430004C45013A4FF400554FF48054C0F808538E
:10A44000D2B2C0F8084321F04071012050E71D7CD2
:10A4500005F0FF04002D7FF446AF324D27481C84E1
:10A46000C5F81445C5F81045294CC0F83C45013ADB
:10A470004FF400654FF48064C0F80853D2B2C0F8BE
:10A48000084321F0406101202DE71D7C05F0FF0409
:10A49000002D7FF423AF244D1848DC83C5F8144504
:10A4A000C5F810451A4CC0F82C45013A4FF4007518
:10A4B0004FF48074C0F80853D2B2C0F8084321F0BA
:10A4C000405101200AE71E7C06F0FF009EB9C4F847
:10A4D00014050F4EC4F81005013A988380254020DA
:10A4E000C4F81C65D2B2C4F8085321F04041C4F846
:10A4F00008030120EEE62846ECE600BF00700040AD
:10A5000000E100E0087000409434002060700040DA
:10A5100000F8FF077070004050700040407000402D
:10A52000307000402070004010700040334A137CAF
:10A53000002B60D1F0B40C79012C4ED900F10C0540
:10A5400002EB45031B7923B992F82D30013382F8D1
:10A550002D304B788E7891F800C04F791B01360270
:10A5600006F4E06603F030033343CE780CF0030CBE
:10A57000360306F4805643EA0C0333438E793F05D5
:10A5800007F48017360602EB450206F080761C4D74
:10A5900024043B4304F4E0243343234305EB001637
:10A5A000CC79147100010C7A547100F18040C6F826
:10A5B000183500F5E040CB790A7AC0F81425C0F8C8
:10A5C00010350B79012B02D90020F0BC7047012314
:10A5D000C5F800350020F0BC704703F0FF05084BBC
:10A5E000C3F8005500F10C0502EB45030C791B790B
:10A5F000002BAED1A8E71120704700BF9434002093
:10A6000000700040F0B42D4D2D4B1222C5F80823E8
:10A610001C7C022C82B04BD01A7C012A24D093F8E7
:10A620002E205860022701240026C5F804731C74EC
:10A63000DE6019816AB9234BC5F82C06C5F83016BF
:10A640001A601B680193019B2C60104602B0F0BC9D
:10A65000704793F82D20C5F82C0630465983C5F86D
:10A66000302602B0F0BC7047DA6832B10223112004
:10A67000C5F8043302B0F0BC704793F82E20D860C0
:10A6800019836AB90F4A1368002BFCD000231360AA
:10A6900012680A4B0092009AC3F82C06C3F83016D1
:10A6A000064B02220020C3F8042302B0F0BC70471E
:10A6B0001120C5F8042302B0F0BC704700700040C0
:10A6C0009434002000710040084A137C012BD9B259
:10A6D00001D00820704792F82E0018B1044B0020DA
:10A6E00019607047034B1960704700BF9434002015
:10A6F000007000400470004072DF704773DF7047E5
:10A7000074DF704776DF70477ADF70477CDF704711
:10A710007FDF70478FDF7047B1DF70473FDF7047E3
:10A7200070B4204A13780133DBB20A2B137007D9B7
:10A730001D4B1B789BB91D49012000230870137025
:10A740001B4E1C4D1C4C1D481D491E4A01233370D5
:10A750002B70237003700B70137070BC70471A4914
:10A760001A480B6800680133A0F15A04A3420B6039
:10A7700014D0834204D316480124002304700B60D4
:10A780004FF0A041D1F80435D84300F4006003F441
:10A790000063C1F80805C1F80C35CCE70D4C012564
:10A7A0002570E6E7A8350020E2340020A935002016
:10A7B000D73400209836002074390020823C0020D5
:10A7C00075390020CF340020D8340020EC2A002036
:10A7D000DC340020DD34002084B08DE80F0004B0AC
:10A7E000704700BF84B030B402AC84E80F00254647
:10A7F0000FCD034C2D680FC4256030BC04B07047EA
:10A800008436002010B40E4B1B787BB10D4B022216
:10A810001A700D4C0D481A780D49001BC008000431
:10A820005DF8044B40F00300FCF760B8094B1B785F
:10A830001BB1044B01221A70EBE7024BE9E700BFA2
:10A84000CE3400202A2B00209C580300E45803003B
:10A850004846030076390020FCF74ABC08B503F0EF
:10A8600021FB00B908BDBDE80840FCF741BC00BFB2
:10A8700000B585B0002206231949ADF800206846CE
:10A880008DF80230FFF7AAFCD8B904220020022379
:10A890000DEB02018DF80C0001908DF80B20ADF846
:10A8A0000830FFF743FEB8B90E480121FFF7AAFEB2
:10A8B00078B90D480121FFF7A5FE28B905B05DF86C
:10A8C00004FBFCF715FCE0E7FCF712FC05B05DF8B3
:10A8D00004FBFCF70DFCECE7FCF70AFCE4E700BF27
:10A8E000A9AB0200EC340020EE340020F0B5A5B096
:10A8F0003C220446002106A805F046FC40F2016314
:10A900000222ADF81A308DF81820324B15AD002C0C
:10A910003BD093F82A308DF8023028464AF613438C
:10A920003C220021ADF800306C4605F02DFC0123DF
:10A93000ADF864301A944FF4A077274E324606A83B
:10A9400052F8041B04F052FAA0BBB168234A28460F
:10A9500004F04CFA002836D118220021204605F0D8
:10A9600013FC0125002322461B491D4802974FF482
:10A970008074ADF80C3001938DF80050ADF81440A0
:10A98000FFF7BAFE10BB25B0F0BD93F82A308DF862
:10A99000023021464AF6124328463C22ADF80030E8
:10A9A0006C4605F0F1FB0123ADF864301A944FF4C6
:10A9B000A067C2E7FCF79CFBB168084A284604F090
:10A9C00015FA0028C8D0FCF793FBC5E7FCF790FB0D
:10A9D00025B0F0BD54350020F02A0020FC2A0020CC
:10A9E000002B002010B50E4C237843B9FBF790FDE7
:10A9F0000028F9D1FDF722FE2378002BF6D00023A2
:10AA00002370237843B9FBF783FD0028F9D1FDF7C4
:10AA100015FE2378002BF6D00023237010BD00BF55
:10AA2000CF34002010B49DF80420052A02D05DF830
:10AA3000044B7047094A1978107B8842F7D0D3F845
:10AA400001301BBAB3F5967FF1D30548054C11735D
:10AA50000360002222605DF8044B70479C360020A2
:10AA6000EC2A0020D834002003782BB90649074A85
:10AA700001230B701370704703480449044A0123F3
:10AA800003700B70137070477E3A00207D3A0020EF
:10AA90007C3A0020012A30B403D0022A12D030BC04
:10AAA0007047114C1148124A12491370001B0023C1
:10AAB000C0080B70000430BC12780F4940F003004E
:10AAC000FBF714BF08490948094C0A4A401A0025F7
:10AAD000C00825700004137030BC1278074940F09C
:10AAE0000300FBF703BF00BF9C580300E4580300BA
:10AAF000CE34002076390020584603007446030007
:10AB000008B5037803B108BD054B3B211888FFF752
:10AB1000F9FD0028F7D0BDE80840FCF7E9BA00BF0E
:10AB2000282B002010B5037882B0042B0ED8DFE864
:10AB300003F01503240D0F001448154B1549C01AD6
:10AB4000C008000440F00100FBF70AFE02B010BD8F
:10AB50000DF1070003F03EF902B010BD0E4C204687
:10AB600003F038F90D4B1A78012A0AD01B78022B12
:10AB7000ECD1207802F04EFDE8E70448044B084988
:10AB8000DDE7207802F0D4F9E0E700BFE4580300E5
:10AB90009C58030098460300803C0020813C002024
:10ABA0008C4603000000000038B5037803B138BDBF
:10ABB000044601214068FFF725FD002842D1636863
:10ABC0009FED257AB3F90030244C254D07EE903ADD
:10ABD000F8EEE77AC7EE877A17EE900A08F0B8FD2C
:10ABE0001BA3D3E9002308F00BFE09F0EBF807EEF6
:10ABF000100AF0EE087A67EE277AB2EE047A67EE72
:10AC0000877AFCEEE77A17EE903A2370FFF73AFB6B
:10AC100014481549154A164B401B0225C1F8085324
:10AC2000C0088021C2F88011000422781149002454
:10AC300040F003001C70FBF759FEFBF769FC00288D
:10AC4000FBD138BDFCF754FAB9E700BFAFF3008081
:10AC5000CDCCCCCCCCCC0C4000007F43D6340020F3
:10AC60009C580300E45803000070004000E100E03D
:10AC700050350020A4460300F0B585B00024134DE4
:10AC8000134F144E8DF80C008C4613480094022389
:10AC900003AA14212C708DF80DC03C70347003F0A1
:10ACA000D7FD80B94FF6FF7300E053B12A78013B1E
:10ACB0009BB202F0FF00002AF7D03078B0FA80F0A3
:10ACC000400905B0F0BD2046FBE700BF7E3A0020FA
:10ACD0007D3A00207C3A002020480300FCF708BAA7
:10ACE00070B50388212B84B004460FD80F2B19D9D7
:10ACF000103B112B16D8DFE803F0254415841515F9
:10AD000015151515151515151515151B522B00F0D4
:10AD10008280562B08D1A0881321FFF7F3FC08B1DD
:10AD2000FCF7E6F904B070BD3B2BF4D004B070BD65
:10AD300000238088ADF8083002A9FFF7EBFC00285B
:10AD4000F0D0EDE73C4B3D483D493E4E3E4DC01AEC
:10AD5000C008000440F00300FBF702FD3B4AA18855
:10AD60003B4B118001221A703A4C3B4A3B4800236E
:10AD700033702B702380137004F0F8FE0028D1D0BC
:10AD8000CEE72D4B2D4836492E4C334DC01AC00806
:10AD9000000440F00300FBF7E3FC2D4B2A4A2D484A
:10ADA0002A4901261E700023237013704FF6FF748A
:10ADB000112203802B480C808DF804202B7005F0A5
:10ADC00013FA284982B201A8FFF7A0FC70BB082241
:10ADD00002A8002105F0D8F9234A4FF0C87302A851
:10ADE000CDE90223FFF790FC18BB204B1878FFF742
:10ADF0007DFD1F4B01211878FFF780FC002891D0C2
:10AE00008EE7124A0023108885211A46FFF780FC3E
:10AE1000002887D084E70D4A0023108819461A4677
:10AE2000FFF77AFC00283FF47DAF79E7FCF760F983
:10AE3000CDE7FCF75DF9D8E79C580300E458030020
:10AE4000AC460300CE34002076390020282B0020A9
:10AE50002A2B0020E03400207237002044350020E7
:10AE6000B8460300C84603005000A000DE340020AE
:10AE7000002B00202DE9F04F2DED028B4FF0805379
:10AE800091B05A6E1B6EC749C7481BBA12BA0A6006
:10AE90004B6002AF082205F069F9C34B00204FF464
:10AEA00080411881FBF7E4FA002840F06E86FBF73A
:10AEB000CFFAFCF71FFB002840F0C586BB4ABC4810
:10AEC0000121FCF74DFB002840F0B9864FF0A0426D
:10AED00003214FF480644FF40060C2F828174FF448
:10AEE0008073C2F808454FF00055C2F82C174FF098
:10AEF0000044C2F808054FF08050C2F82017C2F88D
:10AF00000C35C2F874170023C2F80C55C2F87C1730
:10AF10001B25C2F80C45C2F870171A24C2F80C059C
:10AF20004FF0CD60C2F8243707F11801C7E9064594
:10AF3000386202249F4AA048A7F8253087F82730B6
:10AF400087F8244003F042FD002840F074869B48B7
:10AF500003F06EFCFDF75CFB002840F0688604F00F
:10AF60008DFE002840F05F86002307F118010120C4
:10AF7000BB6104F061FF002840F0518607F1180022
:10AF800005F038F8002840F046860120FFF7C6FBA0
:10AF900011238B483B7205F027F9894982B207F1EA
:10AFA0000800FFF7B3FB002840F03186082200219B
:10AFB00007F1180005F0E8F8824BBB6107F11800B3
:10AFC0004FF0C873FB61FFF79FFB002840F01B8622
:10AFD0007D48002104F0B8FC002840F010860023D2
:10AFE0007A4A7B483B6207F10801C7E90633BA6039
:10AFF00004F0AAFD002840F0FE857649764A774B9A
:10B00000B9617748FA6107F118013B6200F082FFED
:10B01000002840F0EC85734B1878FFF767FC1C2282
:10B02000002107F1180005F0AFF800234FF4A0301D
:10B030006D4ABB61FB8487F828306C4B38624FF453
:10B04000A024032107F11800C7E90B23FC6187F84E
:10B05000241004F0FFF9002840F0C585644B01215D
:10B060001878FFF74BFB002840F0B985002240F22A
:10B0700066616048DFF84481FCF788FAFFF7B2FCAC
:10B080005D4A5E4B5E499B1ADB081B0443F00303D9
:10B09000184608EE103AFBF763FB00240126594DD1
:10B0A000594A5A493E7600202870012310700870D2
:10B0B00007F118020090E1B2404603F0C9FB2B787B
:10B0C00004255BB9FBF724FA002800F0CA814D4B38
:10B0D0001B78013D13B915F0FF05F3D14B4B1B78DD
:10B0E000002B00F0C18101347F2CD8D1B6217E2005
:10B0F000FFF7C2FDFFF776FC05211A20FFF7BCFD24
:10B1000002211920FFF7B8FD2B4B0FCB02F020FCDA
:10B1100002F02EFC4FF0A0434FF48072C3F80825D4
:10B12000FFF760FC3A4B1B78002B00F05485384A3F
:10B1300001231370FFF7C8FA354B1B7803F0FF0BA0
:10B140005BB1FBF7E5F90028F6D1FDF777FA304B54
:10B150001B7803F0FF0B002BF3D12E4E0FCE4FF0D8
:10B16000A0444FF48075C4F80C5507F118040FC4BF
:10B1700096E8030084E80300274CBC60274A284C6B
:10B18000FD60072307F1080107F118007D613C61AC
:10B1900002F0A4FD002840F01A85224A02231C2058
:10B1A000137041E0A0350020C434002021A7020024
:10B1B0001848030069AA02001C4803002048030045
:10B1C000C84603005000A0003035002059A80200F6
:10B1D0004435002005A8020095AA020025AA020015
:10B1E00054350020DE34002001AB0200DDAC02004B
:10B1F000002B0020082B00209C580300E45803007B
:10B20000D84603007E3A00207D3A00207C3A002098
:10B2100050350020E84703007438002025AB0200B9
:10B22000803B0020813C002002F038F9A34802F066
:10B230002FF90A2002F038F9002800F020810A20B6
:10B2400002F0B6F90A2002F081F99D4918EE100AC1
:10B25000FBF786FAFBF75CF90028FBD102F052F904
:10B26000984A994D00231370FFF7F8FA974BBB608B
:10B270000FCD07F118040FC495E80300944A84E841
:10B2800003004FF48075934CFD60072307F108011C
:10B2900007F118007D613C6102F020FD002840F0BC
:10B2A0009284884B1F211D2001241C7000F028FF70
:10B2B000894800F02FFF0A21032000F031FF002809
:10B2C00040F067840A21012000F0FAFF834918EE5C
:10B2D000100AFBF745FAFBF71BF90028FBD10A23FC
:10B2E0007F4E05464FF0A0441946D4F80435DA43A2
:10B2F00002F4806203F48063C4F80825C4F80C35B6
:10B30000D4F80435DA4302F4006203F40063C4F8AD
:10B3100008258846C4F80C35337843B9FBF7F8F8AC
:10B320000028F9D1FDF78AF93378002BF6D0357073
:10B33000337843B9FBF7ECF80028F9D1FDF77EF933
:10B340003378002BF6D008F1FF3313F0FF0335708C
:10B350001946CAD14FF0A0434FF480614FF4006208
:10B36000C3F80815C3F80825564BDFF8B8A1DFF875
:10B37000B8915C4C00251D70FFF770FA5A4B5B4981
:10B38000012218EE100A1A70FBF7EAF958485949D9
:10B3900040F8045B082204F0E9FE554B1D734FF0A2
:10B3A000A0437E60D3F8102592050AD4D3F8042573
:10B3B000D14301F4806102F48062C3F80815C3F838
:10B3C0000C254D4B1B78002B40F0B0804B4B1B786D
:10B3D0005BB1BBF1000F40F031814FF0A0434FF45F
:10B3E0008072C3F808254FF0010B454B18884FF6C3
:10B3F000FF7398424DD0434B1B7803F0FF05002BA1
:10B400004CD0414B1B785BB1404B1B78012B00F0BB
:10B41000D9823E4B1B78022B02D13D4A1E2313805A
:10B420003B4A138801339BB2138013889BB21E2BB7
:10B4300004D9384B1B78002B00F0F1807E683378FC
:10B4400043B9FBF765F80028F9D1FDF7F7F8337831
:10B45000002BF6D000233370FBF75AF80028FBD1FD
:10B460009DE7FDF7EBF832E62B4918EE100A22466D
:10B47000FBF73CFAFBF74CF80028FBD133E62749F1
:10B4800018EE100AFBF76CF9FBF742F80028FBD125
:10B49000E4E61F4A7E6800231380D0E7204B1B7828
:10B4A000002BBDD0184B1B7823B1184B1B78002BF9
:10B4B00040F09982164A00231380B1E7E5A7020005
:10B4C000F8460300813C0020004803007437002048
:10B4D00025AB0200803A0020D9A702001C470300D8
:10B4E000CF340020A9350020E23400204847030073
:10B4F0009C360020A0350020DD340020DC34002004
:10B50000282B0020CE340020DE3400202A2B0020FF
:10B51000E034002072370020EC4603000C470300A3
:10B5200076390020E4340020E8340020DFF818C227
:10B53000734BBB60BCE80F0007F118050FC59CE812
:10B54000030085E803006F4D6F4A4FF4807C0723AA
:10B5500007F1080107F11800C7E903C5C7F814C0CF
:10B5600002F0BCFB002854D1684A02231C2013704F
:10B5700001F094FF664801F08BFF0A2001F094FF70
:10B5800000283BD00A2002F013F80A2001F0DEFF69
:10B59000604918EE100AFBF7E3F87E68FAF7B8FF87
:10B5A0000028FBD180465A255B490A684B7BCAF8C4
:10B5B00000204A68C9F8002013B18B7B272B10D9D3
:10B5C000237843B9FAF7A4FF0028F9D1FDF736F83C
:10B5D0002378002BF6D0013DADB284F80080002D19
:10B5E000E2D17E6001F08EFF484A0023137002F022
:10B5F00059FC88B9494A00231370E7E6484918EE18
:10B60000100AFBF7ADF87E68FAF782FF0028FBD13D
:10B61000E7E7FBF76DFDA7E7FBF76AFDEAE7414BBC
:10B6200013211888FFF76EF83F4A4049012318EEAE
:10B63000100A1370FBF794F87E6800E73C4B1B7808
:10B64000002B00F0E0813A4A01231370FFF73CF829
:10B650007E68374B1B7803F0FF0B5BB1FAF758FF9E
:10B660000028F6D1FCF7EAFF314B1B7803F0FF0B03
:10B67000002BF3D14FF0A0434FF480727E602D4831
:10B68000C3F80C2502F0C0F92B49C7F808B081F8BF
:10B6900000B02A49A7F80CB081F800B02849294821
:10B6A00081F800B0042201233A761421009307F1B7
:10B6B000180203F0CDF870B94FF6FF7302E0002BCB
:10B6C00000F05B821C4A1278013B9BB2002AF6D044
:10B6D0001B4B7E601B78184E1A4800253570174E9C
:10B6E0003570174E062307F118021421357003F048
:10B6F00003F96D4600283CD17E684FF6FF7328E0C1
:10B7000074380020803B002025AB0200813C0020E3
:10B71000E5A702005847030084360020DD340020EE
:10B720000C470300282B002072370020D447030069
:10B73000503500207A3A00207E3A00207D3A0020E1
:10B740007C3A002020480300E8470300002B00F06B
:10B750000B82B04A1278013B9BB2002AF6D0062237
:10B7600007F1180107F108007E6004F0FFFCAA4B06
:10B770001B787B7A387A40EA032000B2B0F5006F7C
:10B78000A8BFA0F58050AD46A8BF00B207F0CEFF1D
:10B79000A24B002208F034F808F0CCFAFA7ABB7A0F
:10B7A00043EA022305B218B2B0F5006F9C4BA4BF68
:10B7B000A0F5805000B21D8007F0B8FF974B002223
:10B7C00008F01EF808F0B6FA7A7B3B7B43EA0223C6
:10B7D0000FFA80F818B2B0F5006F924BA4BFA0F535
:10B7E000805000B2A3F8008007F0A0FF8B4B00222E
:10B7F00008F006F808F09EFA8B4B8C4900B21880CE
:10B800002A460090434618EE100AFBF719FA7E68A4
:10B81000FAF77EFE0028FBD1854D7E600146D522D9
:10B820008448297004F0B0FC834A84491378844A20
:10B830008048A2FB0362D20802EB8205A3EB45031A
:10B84000DBB204F0A9FC7F4AB2F900307E4ADD1772
:10B8500082FB0312C5EBA20505EB8502A3EB4203B5
:10B86000804618B2724B83F8008004F03BFC7149AB
:10B8700003460E462AB251FA88F06D4D6F4904F026
:10B880008BFC2B78664A7149B2F900200344DBB285
:10B89000304618442B7004F07FFC2B78614A6B49CA
:10B8A000B2F900200344DBB2304618442B7004F098
:10B8B00073FC2B785C4A6549B2F900200344DBB283
:10B8C000304618442B7004F067FC2B78DAF800201F
:10B8D0005F490344DBB2304618442B7004F05CFC33
:10B8E0002B78D9F800205B490344DBB2304618447A
:10B8F0002B7004F051FC2E462D784E4A56492B18D9
:10B9000018EE100A3370FAF7F1FF7E68FAF700FEBE
:10B910000028FBD1464B514D1A787E601E464549A2
:10B9200002F10D0380464E482B7004F01FFC327864
:10B9300040494B4802F10D032B7004F017FC494BB2
:10B940001A88494B83F800804FF6FF739A4200F043
:10B95000DC80DFF840C1454BBB60BCE80F0007F15D
:10B9600018050FC59CE8030085E80300404D414AD7
:10B970004FF4807C072307F1080107F11800C7E99D
:10B9800003C5C7F814C002F0A9F9002840F0BA8036
:10B99000394A01230A210320137000F0C1FB00285B
:10B9A0007AD10A21012000F08BFC334A0023137066
:10B9B00002F078FA50BB314901220A702A4A00236A
:10B9C000137012E5254B2E4E1B782E4A2E4900256A
:10B9D000357000F013FB294B2C491D7018EE100A2E
:10B9E000FAF7BEFE1CE51D4B254E1B78254A26495D
:10B9F000357000F01FFB214B25491D7018EE100A11
:10BA0000FAF7AEFE56E5FEF733FF1CE6FBF770FBD8
:10BA1000D1E700BF7D3A00207C3A00200040EF3F94
:10BA2000D0340020D2340020D434002074470300E6
:10BA300081360020AC350020D63400208447030036
:10BA4000CDCCCCCC7A3A0020676666668C47030082
:10BA500090470300984703009C470300713700207C
:10BA6000A9360020282B0020DC3400207437002069
:10BA7000803A002025AB0200813C0020DE3400200B
:10BA80002A2B00209C36002054350020A8470300B4
:10BA9000C04703000048030000F032FE002880D0B9
:10BAA00000F052FF00283FF47CAF694B69481978D9
:10BAB00001F084F900283FF474AF674E6748002511
:10BAC0002946FF22358004F05FFB644801F024FA28
:10BAD000052830807FF465AF60495E480A78037BB3
